{
  "contractName": "PassageHelper",
  "abi": [
    {
      "constant": true,
      "inputs": [
        {
          "name": "",
          "type": "uint256"
        }
      ],
      "name": "certifingUsers",
      "outputs": [
        {
          "name": "",
          "type": "address"
        }
      ],
      "payable": false,
      "stateMutability": "view",
      "type": "function"
    },
    {
      "constant": true,
      "inputs": [
        {
          "name": "",
          "type": "uint256"
        }
      ],
      "name": "productVersionIds",
      "outputs": [
        {
          "name": "",
          "type": "bytes32"
        }
      ],
      "payable": false,
      "stateMutability": "view",
      "type": "function"
    },
    {
      "constant": true,
      "inputs": [
        {
          "name": "",
          "type": "uint256"
        }
      ],
      "name": "certificationIds",
      "outputs": [
        {
          "name": "",
          "type": "bytes32"
        }
      ],
      "payable": false,
      "stateMutability": "view",
      "type": "function"
    },
    {
      "constant": true,
      "inputs": [
        {
          "name": "",
          "type": "bytes32"
        },
        {
          "name": "",
          "type": "uint256"
        }
      ],
      "name": "nodeToParents",
      "outputs": [
        {
          "name": "",
          "type": "bytes32"
        }
      ],
      "payable": false,
      "stateMutability": "view",
      "type": "function"
    },
    {
      "constant": true,
      "inputs": [
        {
          "name": "",
          "type": "address"
        }
      ],
      "name": "actorAddressToActorStruct",
      "outputs": [
        {
          "name": "actorId",
          "type": "bytes32"
        },
        {
          "name": "name",
          "type": "string"
        },
        {
          "name": "accountAddress",
          "type": "address"
        },
        {
          "name": "physicalAddress",
          "type": "string"
        }
      ],
      "payable": false,
      "stateMutability": "view",
      "type": "function"
    },
    {
      "constant": true,
      "inputs": [
        {
          "name": "",
          "type": "bytes32"
        }
      ],
      "name": "productIdToProductStruct",
      "outputs": [
        {
          "name": "exists",
          "type": "bool"
        },
        {
          "name": "archived",
          "type": "bool"
        },
        {
          "name": "productId",
          "type": "bytes32"
        },
        {
          "name": "latestVersionId",
          "type": "bytes32"
        },
        {
          "name": "owner",
          "type": "address"
        },
        {
          "name": "nextAuthorizedOwnerAddress",
          "type": "address"
        },
        {
          "name": "name",
          "type": "string"
        },
        {
          "name": "description",
          "type": "string"
        }
      ],
      "payable": false,
      "stateMutability": "view",
      "type": "function"
    },
    {
      "constant": true,
      "inputs": [
        {
          "name": "",
          "type": "bytes32"
        }
      ],
      "name": "certificationIdToCertificationStruct",
      "outputs": [
        {
          "name": "certificationId",
          "type": "bytes32"
        },
        {
          "name": "name",
          "type": "string"
        },
        {
          "name": "imageUrl",
          "type": "string"
        }
      ],
      "payable": false,
      "stateMutability": "view",
      "type": "function"
    },
    {
      "constant": true,
      "inputs": [
        {
          "name": "",
          "type": "bytes32"
        }
      ],
      "name": "versionIdToVersionStruct",
      "outputs": [
        {
          "name": "versionId",
          "type": "bytes32"
        },
        {
          "name": "previousVersionId",
          "type": "bytes32"
        },
        {
          "name": "creationDate",
          "type": "uint256"
        },
        {
          "name": "owner",
          "type": "address"
        },
        {
          "name": "latitude",
          "type": "string"
        },
        {
          "name": "longitude",
          "type": "string"
        },
        {
          "name": "customJsonData",
          "type": "string"
        }
      ],
      "payable": false,
      "stateMutability": "view",
      "type": "function"
    },
    {
      "constant": true,
      "inputs": [
        {
          "name": "",
          "type": "uint256"
        }
      ],
      "name": "actorAddresses",
      "outputs": [
        {
          "name": "",
          "type": "address"
        }
      ],
      "payable": false,
      "stateMutability": "view",
      "type": "function"
    },
    {
      "constant": true,
      "inputs": [],
      "name": "godUser",
      "outputs": [
        {
          "name": "",
          "type": "address"
        }
      ],
      "payable": false,
      "stateMutability": "view",
      "type": "function"
    },
    {
      "constant": true,
      "inputs": [
        {
          "name": "",
          "type": "bytes32"
        },
        {
          "name": "",
          "type": "uint256"
        }
      ],
      "name": "nodeToChildren",
      "outputs": [
        {
          "name": "",
          "type": "bytes32"
        }
      ],
      "payable": false,
      "stateMutability": "view",
      "type": "function"
    },
    {
      "constant": true,
      "inputs": [
        {
          "name": "",
          "type": "uint256"
        }
      ],
      "name": "productIds",
      "outputs": [
        {
          "name": "",
          "type": "bytes32"
        }
      ],
      "payable": false,
      "stateMutability": "view",
      "type": "function"
    },
    {
      "constant": true,
      "inputs": [
        {
          "name": "",
          "type": "address"
        },
        {
          "name": "",
          "type": "uint256"
        }
      ],
      "name": "ownerToProductsId",
      "outputs": [
        {
          "name": "",
          "type": "bytes32"
        }
      ],
      "payable": false,
      "stateMutability": "view",
      "type": "function"
    },
    {
      "anonymous": false,
      "inputs": [
        {
          "indexed": false,
          "name": "newProductId",
          "type": "bytes32"
        },
        {
          "indexed": true,
          "name": "owner",
          "type": "address"
        }
      ],
      "name": "ProductCreated",
      "type": "event"
    },
    {
      "constant": false,
      "inputs": [
        {
          "name": "_productId",
          "type": "bytes32"
        },
        {
          "name": "_newOwnerAddress",
          "type": "address"
        }
      ],
      "name": "requestOwnershipTransfer",
      "outputs": [],
      "payable": false,
      "stateMutability": "nonpayable",
      "type": "function"
    },
    {
      "constant": false,
      "inputs": [
        {
          "name": "_productId",
          "type": "bytes32"
        }
      ],
      "name": "acceptOwnershipTransfer",
      "outputs": [],
      "payable": false,
      "stateMutability": "nonpayable",
      "type": "function"
    }
  ],
  "bytecode": "0x608060405234801561001057600080fd5b506115d1806100206000396000f3006080604052600436106100db576000357c0100000000000000000000000000000000000000000000000000000000900463ffffffff1680630ebb2821146100e05780630f42435b1461014d57806319a54cdd14610196578063395c2111146101c757806348964476146102105780634a9011111461026757806364aa3a48146103d15780638495aa1714610581578063860af699146105d2578063876359e4146106f75780639482300a146108d1578063a25a8a7e1461093e578063c81e598614610995578063cb51bba9146109ec578063db2b9f1814610a35575b600080fd5b3480156100ec57600080fd5b5061010b60048036038101908080359060200190929190505050610a9e565b604051808273ffffffffffffffffffffffffffffffffffffffff1673ffffffffffffffffffffffffffffffffffffffff16815260200191505060405180910390f35b34801561015957600080fd5b5061017860048036038101908080359060200190929190505050610adc565b60405180826000191660001916815260200191505060405180910390f35b3480156101a257600080fd5b506101c56004803603810190808035600019169060200190929190505050610aff565b005b3480156101d357600080fd5b506101f260048036038101908080359060200190929190505050610cbe565b60405180826000191660001916815260200191505060405180910390f35b34801561021c57600080fd5b50610249600480360381019080803560001916906020019092919080359060200190929190505050610ce1565b60405180826000191660001916815260200191505060405180910390f35b34801561027357600080fd5b506102a8600480360381019080803573ffffffffffffffffffffffffffffffffffffffff169060200190929190505050610d11565b604051808560001916600019168152602001806020018473ffffffffffffffffffffffffffffffffffffffff1673ffffffffffffffffffffffffffffffffffffffff16815260200180602001838103835286818151815260200191508051906020019080838360005b8381101561032c578082015181840152602081019050610311565b50505050905090810190601f1680156103595780820380516001836020036101000a031916815260200191505b50838103825284818151815260200191508051906020019080838360005b83811015610392578082015181840152602081019050610377565b50505050905090810190601f1680156103bf5780820380516001836020036101000a031916815260200191505b50965050505050505060405180910390f35b3480156103dd57600080fd5b506104006004803603810190808035600019169060200190929190505050610e91565b604051808915151515815260200188151515158152602001876000191660001916815260200186600019166000191681526020018573ffffffffffffffffffffffffffffffffffffffff1673ffffffffffffffffffffffffffffffffffffffff1681526020018473ffffffffffffffffffffffffffffffffffffffff1673ffffffffffffffffffffffffffffffffffffffff1681526020018060200180602001838103835285818151815260200191508051906020019080838360005b838110156104d85780820151818401526020810190506104bd565b50505050905090810190601f1680156105055780820380516001836020036101000a031916815260200191505b50838103825284818151815260200191508051906020019080838360005b8381101561053e578082015181840152602081019050610523565b50505050905090810190601f16801561056b5780820380516001836020036101000a031916815260200191505b509a505050505050505050505060405180910390f35b34801561058d57600080fd5b506105d06004803603810190808035600019169060200190929190803573ffffffffffffffffffffffffffffffffffffffff169060200190929190505050611063565b005b3480156105de57600080fd5b50610601600480360381019080803560001916906020019092919050505061113a565b6040518084600019166000191681526020018060200180602001838103835285818151815260200191508051906020019080838360005b83811015610653578082015181840152602081019050610638565b50505050905090810190601f1680156106805780820380516001836020036101000a031916815260200191505b50838103825284818151815260200191508051906020019080838360005b838110156106b957808201518184015260208101905061069e565b50505050905090810190601f1680156106e65780820380516001836020036101000a031916815260200191505b509550505050505060405180910390f35b34801561070357600080fd5b506107266004803603810190808035600019169060200190929190505050611294565b60405180886000191660001916815260200187600019166000191681526020018681526020018573ffffffffffffffffffffffffffffffffffffffff1673ffffffffffffffffffffffffffffffffffffffff168152602001806020018060200180602001848103845287818151815260200191508051906020019080838360005b838110156107c25780820151818401526020810190506107a7565b50505050905090810190601f1680156107ef5780820380516001836020036101000a031916815260200191505b50848103835286818151815260200191508051906020019080838360005b8381101561082857808201518184015260208101905061080d565b50505050905090810190601f1680156108555780820380516001836020036101000a031916815260200191505b50848103825285818151815260200191508051906020019080838360005b8381101561088e578082015181840152602081019050610873565b50505050905090810190601f1680156108bb5780820380516001836020036101000a031916815260200191505b509a505050505050505050505060405180910390f35b3480156108dd57600080fd5b506108fc600480360381019080803590602001909291905050506114be565b604051808273ffffffffffffffffffffffffffffffffffffffff1673ffffffffffffffffffffffffffffffffffffffff16815260200191505060405180910390f35b34801561094a57600080fd5b506109536114fc565b604051808273ffffffffffffffffffffffffffffffffffffffff1673ffffffffffffffffffffffffffffffffffffffff16815260200191505060405180910390f35b3480156109a157600080fd5b506109ce600480360381019080803560001916906020019092919080359060200190929190505050611522565b60405180826000191660001916815260200191505060405180910390f35b3480156109f857600080fd5b50610a1760048036038101908080359060200190929190505050611552565b60405180826000191660001916815260200191505060405180910390f35b348015610a4157600080fd5b50610a80600480360381019080803573ffffffffffffffffffffffffffffffffffffffff16906020019092919080359060200190929190505050611575565b60405180826000191660001916815260200191505060405180910390f35b600c81815481101515610aad57fe5b906000526020600020016000915054906101000a900473ffffffffffffffffffffffffffffffffffffffff1681565b600381815481101515610aeb57fe5b906000526020600020016000915090505481565b6000806000836000191660001916815260200190815260200160002060060160009054906101000a900473ffffffffffffffffffffffffffffffffffffffff1673ffffffffffffffffffffffffffffffffffffffff168160020160009054906101000a900473ffffffffffffffffffffffffffffffffffffffff1673ffffffffffffffffffffffffffffffffffffffff16141515610b9c57600080fd5b600560003373ffffffffffffffffffffffffffffffffffffffff1673ffffffffffffffffffffffffffffffffffffffff16815260200190815260200160002090506000806000846000191660001916815260200190815260200160002060060160006101000a81548173ffffffffffffffffffffffffffffffffffffffff021916908373ffffffffffffffffffffffffffffffffffffffff1602179055508060020160009054906101000a900473ffffffffffffffffffffffffffffffffffffffff16600080846000191660001916815260200190815260200160002060050160006101000a81548173ffffffffffffffffffffffffffffffffffffffff021916908373ffffffffffffffffffffffffffffffffffffffff1602179055505050565b600881815481101515610ccd57fe5b906000526020600020016000915090505481565b600960205281600052604060002081815481101515610cfc57fe5b90600052602060002001600091509150505481565b6005602052806000526040600020600091509050806000015490806001018054600181600116156101000203166002900480601f016020809104026020016040519081016040528092919081815260200182805460018160011615610100020316600290048015610dc35780601f10610d9857610100808354040283529160200191610dc3565b820191906000526020600020905b815481529060010190602001808311610da657829003601f168201915b5050505050908060020160009054906101000a900473ffffffffffffffffffffffffffffffffffffffff1690806003018054600181600116156101000203166002900480601f016020809104026020016040519081016040528092919081815260200182805460018160011615610100020316600290048015610e875780601f10610e5c57610100808354040283529160200191610e87565b820191906000526020600020905b815481529060010190602001808311610e6a57829003601f168201915b5050505050905084565b60006020528060005260406000206000915090508060000160009054906101000a900460ff16908060000160019054906101000a900460ff16908060010154908060020154908060050160009054906101000a900473ffffffffffffffffffffffffffffffffffffffff16908060060160009054906101000a900473ffffffffffffffffffffffffffffffffffffffff1690806007018054600181600116156101000203166002900480601f016020809104026020016040519081016040528092919081815260200182805460018160011615610100020316600290048015610fbb5780601f10610f9057610100808354040283529160200191610fbb565b820191906000526020600020905b815481529060010190602001808311610f9e57829003601f168201915b505050505090806008018054600181600116156101000203166002900480601f0160208091040260200160405190810160405280929190818152602001828054600181600116156101000203166002900480156110595780601f1061102e57610100808354040283529160200191611059565b820191906000526020600020905b81548152906001019060200180831161103c57829003601f168201915b5050505050905088565b600080836000191660001916815260200190815260200160002060050160009054906101000a900473ffffffffffffffffffffffffffffffffffffffff1673ffffffffffffffffffffffffffffffffffffffff163373ffffffffffffffffffffffffffffffffffffffff161415156110da57600080fd5b80600080846000191660001916815260200190815260200160002060060160006101000a81548173ffffffffffffffffffffffffffffffffffffffff021916908373ffffffffffffffffffffffffffffffffffffffff1602179055505050565b6007602052806000526040600020600091509050806000015490806001018054600181600116156101000203166002900480601f0160208091040260200160405190810160405280929190818152602001828054600181600116156101000203166002900480156111ec5780601f106111c1576101008083540402835291602001916111ec565b820191906000526020600020905b8154815290600101906020018083116111cf57829003601f168201915b505050505090806002018054600181600116156101000203166002900480601f01602080910402602001604051908101604052809291908181526020018280546001816001161561010002031660029004801561128a5780601f1061125f5761010080835404028352916020019161128a565b820191906000526020600020905b81548152906001019060200180831161126d57829003601f168201915b5050505050905083565b60026020528060005260406000206000915090508060000154908060010154908060020154908060030160009054906101000a900473ffffffffffffffffffffffffffffffffffffffff1690806004018054600181600116156101000203166002900480601f0160208091040260200160405190810160405280929190818152602001828054600181600116156101000203166002900480156113785780601f1061134d57610100808354040283529160200191611378565b820191906000526020600020905b81548152906001019060200180831161135b57829003601f168201915b505050505090806005018054600181600116156101000203166002900480601f0160208091040260200160405190810160405280929190818152602001828054600181600116156101000203166002900480156114165780601f106113eb57610100808354040283529160200191611416565b820191906000526020600020905b8154815290600101906020018083116113f957829003601f168201915b505050505090806006018054600181600116156101000203166002900480601f0160208091040260200160405190810160405280929190818152602001828054600181600116156101000203166002900480156114b45780601f10611489576101008083540402835291602001916114b4565b820191906000526020600020905b81548152906001019060200180831161149757829003601f168201915b5050505050905087565b6006818154811015156114cd57fe5b906000526020600020016000915054906101000a900473ffffffffffffffffffffffffffffffffffffffff1681565b600b60009054906101000a900473ffffffffffffffffffffffffffffffffffffffff1681565b600a6020528160005260406000208181548110151561153d57fe5b90600052602060002001600091509150505481565b60018181548110151561156157fe5b906000526020600020016000915090505481565b60046020528160005260406000208181548110151561159057fe5b906000526020600020016000915091505054815600a165627a7a723058208e59e0212578b45ec932922af232dd1c49658cea4e87e7565222a0393d16474c0029",
  "source": "pragma solidity ^0.4.19;\n\nimport \"./PassageEvents.sol\";\n\ncontract PassageHelper is PassageEvents {\n\n    // TODO:\n    // OnlyPassageTeam\n    // OnlyIndustry\n    // OnlyPublic\n    // OnlyGovernment\n\n    modifier ownerOf(bytes32 _productId) {\n        require(msg.sender == productIdToProductStruct[_productId].owner);\n        _;\n    }\n\n    modifier productIdsExist(bytes32[] _productIds) {\n        bool allIdsExist = true;\n        for (uint i = 0; i < _productIds.length; i++) {\n            if (!productIdToProductStruct[_productIds[i]].exists) {\n                allIdsExist = false;\n                break;\n            }\n        }\n        require(allIdsExist);\n        _;\n    }\n\n    modifier productIdExists(bytes32 _productId) {\n        require(productIdToProductStruct[_productId].exists);\n        _;\n    }\n\n    modifier noChildren(bytes32 _productId) {\n        require(nodeToChildren[_productId].length == 0);\n        _;\n    }\n\n    // list of \"god\" users, who can add their own certifications to any product\n    modifier onlyGod() {\n        require(msg.sender == godUser);\n        _;\n    }\n    \n    // request to transfer *product* ownership\n    function requestOwnershipTransfer(bytes32 _productId, address _newOwnerAddress) public {\n        require(msg.sender == productIdToProductStruct[_productId].owner);\n        productIdToProductStruct[_productId].nextAuthorizedOwnerAddress = _newOwnerAddress;\n    }\n\n    // accept a *product* ownership transfer\n    function acceptOwnershipTransfer(bytes32 _productId) public {\n        require(newOwnerStruct.accountAddress == productIdToProductStruct[_productId].nextAuthorizedOwnerAddress);\n        Actor storage newOwnerStruct = actorAddressToActorStruct[msg.sender];\n        productIdToProductStruct[_productId].nextAuthorizedOwnerAddress = 0;\n        productIdToProductStruct[_productId].owner = newOwnerStruct.accountAddress;\n    }\n}\n",
  "sourcePath": "/root/trace/contracts/PassageHelper.sol",
  "compiler": {
    "name": "solc",
    "version": "0.4.23+commit.124ca40d.Emscripten.clang"
  },
  "schemaVersion": "2.0.0",
  "updatedAt": "2020-02-20T06:21:21.631Z"
}